{
  "contractName": "Message",
  "abi": [
    {
      "constant": true,
      "inputs": [
        {
          "name": "",
          "type": "bytes32"
        }
      ],
      "name": "ID2Article",
      "outputs": [
        {
          "name": "authorAddress",
          "type": "address"
        },
        {
          "name": "authorNickName",
          "type": "string"
        },
        {
          "name": "title",
          "type": "string"
        },
        {
          "name": "body",
          "type": "string"
        }
      ],
      "payable": false,
      "stateMutability": "view",
      "type": "function"
    },
    {
      "inputs": [],
      "payable": false,
      "stateMutability": "nonpayable",
      "type": "constructor"
    },
    {
      "constant": false,
      "inputs": [
        {
          "name": "authorNickName",
          "type": "string"
        },
        {
          "name": "title",
          "type": "string"
        },
        {
          "name": "body",
          "type": "string"
        }
      ],
      "name": "publish",
      "outputs": [
        {
          "name": "",
          "type": "bytes32"
        }
      ],
      "payable": false,
      "stateMutability": "nonpayable",
      "type": "function"
    },
    {
      "constant": true,
      "inputs": [
        {
          "name": "articleID",
          "type": "bytes32"
        }
      ],
      "name": "getArticleByID",
      "outputs": [
        {
          "name": "",
          "type": "address"
        },
        {
          "name": "",
          "type": "string"
        },
        {
          "name": "",
          "type": "string"
        },
        {
          "name": "",
          "type": "string"
        }
      ],
      "payable": false,
      "stateMutability": "view",
      "type": "function"
    },
    {
      "constant": true,
      "inputs": [
        {
          "name": "nickName",
          "type": "string"
        },
        {
          "name": "title",
          "type": "string"
        }
      ],
      "name": "getArticleByURL",
      "outputs": [
        {
          "name": "",
          "type": "address"
        },
        {
          "name": "",
          "type": "string"
        },
        {
          "name": "",
          "type": "string"
        },
        {
          "name": "",
          "type": "string"
        }
      ],
      "payable": false,
      "stateMutability": "view",
      "type": "function"
    }
  ],
  "bytecode": "0x608060405234801561001057600080fd5b50336000806101000a81548173ffffffffffffffffffffffffffffffffffffffff021916908373ffffffffffffffffffffffffffffffffffffffff1602179055506110db806100606000396000f300608060405260043610610062576000357c0100000000000000000000000000000000000000000000000000000000900463ffffffff1680636d25e37714610067578063ab74879314610178578063baadded4146103ab578063d2371d3a14610560575b600080fd5b34801561007357600080fd5b5061015a600480360381019080803590602001908201803590602001908080601f0160208091040260200160405190810160405280939291908181526020018383808284378201915050505050509192919290803590602001908201803590602001908080601f0160208091040260200160405190810160405280939291908181526020018383808284378201915050505050509192919290803590602001908201803590602001908080601f0160208091040260200160405190810160405280939291908181526020018383808284378201915050505050509192919290505050610715565b60405180826000191660001916815260200191505060405180910390f35b34801561018457600080fd5b50610225600480360381019080803590602001908201803590602001908080601f0160208091040260200160405190810160405280939291908181526020018383808284378201915050505050509192919290803590602001908201803590602001908080601f0160208091040260200160405190810160405280939291908181526020018383808284378201915050505050509192919290505050610989565b604051808573ffffffffffffffffffffffffffffffffffffffff1673ffffffffffffffffffffffffffffffffffffffff168152602001806020018060200180602001848103845287818151815260200191508051906020019080838360005b8381101561029f578082015181840152602081019050610284565b50505050905090810190601f1680156102cc5780820380516001836020036101000a031916815260200191505b50848103835286818151815260200191508051906020019080838360005b838110156103055780820151818401526020810190506102ea565b50505050905090810190601f1680156103325780820380516001836020036101000a031916815260200191505b50848103825285818151815260200191508051906020019080838360005b8381101561036b578082015181840152602081019050610350565b50505050905090810190601f1680156103985780820380516001836020036101000a031916815260200191505b5097505050505050505060405180910390f35b3480156103b757600080fd5b506103da6004803603810190808035600019169060200190929190505050610b12565b604051808573ffffffffffffffffffffffffffffffffffffffff1673ffffffffffffffffffffffffffffffffffffffff168152602001806020018060200180602001848103845287818151815260200191508051906020019080838360005b83811015610454578082015181840152602081019050610439565b50505050905090810190601f1680156104815780820380516001836020036101000a031916815260200191505b50848103835286818151815260200191508051906020019080838360005b838110156104ba57808201518184015260208101905061049f565b50505050905090810190601f1680156104e75780820380516001836020036101000a031916815260200191505b50848103825285818151815260200191508051906020019080838360005b83811015610520578082015181840152602081019050610505565b50505050905090810190601f16801561054d5780820380516001836020036101000a031916815260200191505b5097505050505050505060405180910390f35b34801561056c57600080fd5b5061058f6004803603810190808035600019169060200190929190505050610db3565b604051808573ffffffffffffffffffffffffffffffffffffffff1673ffffffffffffffffffffffffffffffffffffffff168152602001806020018060200180602001848103845287818151815260200191508051906020019080838360005b838110156106095780820151818401526020810190506105ee565b50505050905090810190601f1680156106365780820380516001836020036101000a031916815260200191505b50848103835286818151815260200191508051906020019080838360005b8381101561066f578082015181840152602081019050610654565b50505050905090810190601f16801561069c5780820380516001836020036101000a031916815260200191505b50848103825285818151815260200191508051906020019080838360005b838110156106d55780820151818401526020810190506106ba565b50505050905090810190601f1680156107025780820380516001836020036101000a031916815260200191505b5097505050505050505060405180910390f35b600061071f610fcb565b60006080604051908101604052803373ffffffffffffffffffffffffffffffffffffffff168152602001878152602001868152602001858152509150600286866040516020018083805190602001908083835b6020831015156107975780518252602082019150602081019050602083039250610772565b6001836020036101000a03801982511681845116808217855250505050505090500182805190602001908083835b6020831015156107ea57805182526020820191506020810190506020830392506107c5565b6001836020036101000a038019825116818451168082178552505050505050905001925050506040516020818303038152906040526040518082805190602001908083835b602083101515610854578051825260208201915060208101905060208303925061082f565b6001836020036101000a0380198251168184511680821785525050505050509050019150506020604051808303816000865af1158015610898573d6000803e3d6000fd5b5050506040513d60208110156108ad57600080fd5b810190808051906020019092919050505090508160016000836000191660001916815260200190815260200160002060008201518160000160006101000a81548173ffffffffffffffffffffffffffffffffffffffff021916908373ffffffffffffffffffffffffffffffffffffffff160217905550602082015181600101908051906020019061093f92919061100a565b50604082015181600201908051906020019061095c92919061100a565b50606082015181600301908051906020019061097992919061100a565b5090505080925050509392505050565b600060608060606000600287876040516020018083805190602001908083835b6020831015156109ce57805182526020820191506020810190506020830392506109a9565b6001836020036101000a03801982511681845116808217855250505050505090500182805190602001908083835b602083101515610a2157805182526020820191506020810190506020830392506109fc565b6001836020036101000a038019825116818451168082178552505050505050905001925050506040516020818303038152906040526040518082805190602001908083835b602083101515610a8b5780518252602082019150602081019050602083039250610a66565b6001836020036101000a0380198251168184511680821785525050505050509050019150506020604051808303816000865af1158015610acf573d6000803e3d6000fd5b5050506040513d6020811015610ae457600080fd5b81019080805190602001909291905050509050610b0081610b12565b94509450945094505092959194509250565b60006060806060610b21610fcb565b600160008760001916600019168152602001908152602001600020608060405190810160405290816000820160009054906101000a900473ffffffffffffffffffffffffffffffffffffffff1673ffffffffffffffffffffffffffffffffffffffff1673ffffffffffffffffffffffffffffffffffffffff168152602001600182018054600181600116156101000203166002900480601f016020809104026020016040519081016040528092919081815260200182805460018160011615610100020316600290048015610c375780601f10610c0c57610100808354040283529160200191610c37565b820191906000526020600020905b815481529060010190602001808311610c1a57829003601f168201915b50505050508152602001600282018054600181600116156101000203166002900480601f016020809104026020016040519081016040528092919081815260200182805460018160011615610100020316600290048015610cd95780601f10610cae57610100808354040283529160200191610cd9565b820191906000526020600020905b815481529060010190602001808311610cbc57829003601f168201915b50505050508152602001600382018054600181600116156101000203166002900480601f016020809104026020016040519081016040528092919081815260200182805460018160011615610100020316600290048015610d7b5780601f10610d5057610100808354040283529160200191610d7b565b820191906000526020600020905b815481529060010190602001808311610d5e57829003601f168201915b505050505081525050905080600001518160200151826040015183606001518292508191508090509450945094509450509193509193565b60016020528060005260406000206000915090508060000160009054906101000a900473ffffffffffffffffffffffffffffffffffffffff1690806001018054600181600116156101000203166002900480601f016020809104026020016040519081016040528092919081815260200182805460018160011615610100020316600290048015610e855780601f10610e5a57610100808354040283529160200191610e85565b820191906000526020600020905b815481529060010190602001808311610e6857829003601f168201915b505050505090806002018054600181600116156101000203166002900480601f016020809104026020016040519081016040528092919081815260200182805460018160011615610100020316600290048015610f235780601f10610ef857610100808354040283529160200191610f23565b820191906000526020600020905b815481529060010190602001808311610f0657829003601f168201915b505050505090806003018054600181600116156101000203166002900480601f016020809104026020016040519081016040528092919081815260200182805460018160011615610100020316600290048015610fc15780601f10610f9657610100808354040283529160200191610fc1565b820191906000526020600020905b815481529060010190602001808311610fa457829003601f168201915b5050505050905084565b608060405190810160405280600073ffffffffffffffffffffffffffffffffffffffff1681526020016060815260200160608152602001606081525090565b828054600181600116156101000203166002900490600052602060002090601f016020900481019282601f1061104b57805160ff1916838001178555611079565b82800160010185558215611079579182015b8281111561107857825182559160200191906001019061105d565b5b509050611086919061108a565b5090565b6110ac91905b808211156110a8576000816000905550600101611090565b5090565b905600a165627a7a723058202cf65e198a1b257c66b18b947087e7ad467b93e2f6d87a84f85f363a42be84ca0029",
  "source": "pragma solidity ^0.4.22;\n\n//import \"openzeppelin-solidity/contracts/math/SafeMath.sol\";\n\n\ncontract Message {\n    //    using SafeMath for uint;\n\n    address owner;\n\n    struct Article {\n        address authorAddress;\n        string authorNickName;\n        string title;\n        string body;\n        //        uint256 viewCount;\n    }\n\n    mapping(bytes32 => Article) public ID2Article;\n\n    modifier isOwner(){\n        if (msg.sender == owner) _;\n    }\n\n    //    modifier isNotArticleAuthor(bytes32 articleID){\n    //        if (msg.sender != ID2Article[articleID].authorAddress) {\n    //            ID2Article[articleID].viewCount = ID2Article[articleID].viewCount.add(1);\n    //        }\n    //        _;\n    //    }\n\n    constructor() public{\n        owner = msg.sender;\n    }\n\n    function publish(string authorNickName, string title, string body) public returns (bytes32){\n\n        //        Article memory temp = Article(msg.sender, authorNickName, title, body, 1);\n        Article memory temp = Article(msg.sender, authorNickName, title, body);\n        //bytes32 tmpID = sha256(abi.encodePacked(msg.sender, authorNickName, title, body));\n        // only encode two argument, the nick name and the title for better usage of searching through the web url\n        bytes32 tmpID = sha256(abi.encodePacked(authorNickName, title));\n        ID2Article[tmpID] = temp;\n        return (tmpID);\n    }\n\n    function getArticleByID(bytes32 articleID) public view returns (address, string, string, string){\n\n        Article memory tmp = ID2Article[articleID];\n        //        tmp.viewCount = tmp.viewCount.add(1);\n        return (tmp.authorAddress, tmp.authorNickName, tmp.title, tmp.body);\n    }\n\n    function getArticleByURL(string nickName, string title) public view returns (address, string, string, string){\n        bytes32 tmpID = sha256(abi.encodePacked(nickName, title));\n        return getArticleByID(tmpID);\n    }\n\n    //    function getArticleByID(bytes32 articleID) public isNotArticleAuthor(articleID) view returns (address, string, string, string, uint256){\n    //\n    //        Article memory tmp = ID2Article[articleID];\n    //        //        tmp.viewCount = tmp.viewCount.add(1);\n    //        return (tmp.authorAddress, tmp.authorNickName, tmp.title, tmp.body, tmp.viewCount);\n    //    }\n\n    // with viewCount version\n    //    function getArticleByURL(string nickName, string title) public view returns (address, string, string, string, uint256){\n    //        bytes32 tmpID = sha256(abi.encodePacked(nickName, title));\n    //        return getArticleByID(tmpID);\n    //    }\n\n    //without viewCount version\n\n}\n",
  "sourcePath": "/Users/howechen/GitHub/ethergraph/contracts/Message.sol",
  "compiler": {
    "name": "solc",
    "version": "0.4.24+commit.e67f0147.Emscripten.clang"
  },
  "schemaVersion": "2.0.0",
  "updatedAt": "2018-05-29T16:06:40.068Z"
}