{
  "contractName": "Message",
  "abi": [
    {
      "inputs": [],
      "payable": false,
      "stateMutability": "nonpayable",
      "type": "constructor"
    },
    {
      "constant": false,
      "inputs": [
        {
          "name": "authorNickName",
          "type": "string"
        },
        {
          "name": "title",
          "type": "string"
        },
        {
          "name": "body",
          "type": "string"
        }
      ],
      "name": "publish",
      "outputs": [
        {
          "name": "",
          "type": "bytes32"
        }
      ],
      "payable": false,
      "stateMutability": "nonpayable",
      "type": "function"
    },
    {
      "constant": true,
      "inputs": [
        {
          "name": "articleID",
          "type": "bytes32"
        }
      ],
      "name": "getArticleByID",
      "outputs": [
        {
          "name": "",
          "type": "address"
        },
        {
          "name": "",
          "type": "string"
        },
        {
          "name": "",
          "type": "string"
        },
        {
          "name": "",
          "type": "string"
        }
      ],
      "payable": false,
      "stateMutability": "view",
      "type": "function"
    },
    {
      "constant": true,
      "inputs": [
        {
          "name": "nickName",
          "type": "string"
        },
        {
          "name": "title",
          "type": "string"
        }
      ],
      "name": "getArticleByURL",
      "outputs": [
        {
          "name": "",
          "type": "address"
        },
        {
          "name": "",
          "type": "string"
        },
        {
          "name": "",
          "type": "string"
        },
        {
          "name": "",
          "type": "string"
        }
      ],
      "payable": false,
      "stateMutability": "view",
      "type": "function"
    }
  ],
  "bytecode": "0x608060405234801561001057600080fd5b50336000806101000a81548173ffffffffffffffffffffffffffffffffffffffff021916908373ffffffffffffffffffffffffffffffffffffffff160217905550610d03806100606000396000f300608060405260043610610057576000357c0100000000000000000000000000000000000000000000000000000000900463ffffffff1680636d25e3771461005c578063ab7487931461016d578063baadded4146103a0575b600080fd5b34801561006857600080fd5b5061014f600480360381019080803590602001908201803590602001908080601f0160208091040260200160405190810160405280939291908181526020018383808284378201915050505050509192919290803590602001908201803590602001908080601f0160208091040260200160405190810160405280939291908181526020018383808284378201915050505050509192919290803590602001908201803590602001908080601f0160208091040260200160405190810160405280939291908181526020018383808284378201915050505050509192919290505050610555565b60405180826000191660001916815260200191505060405180910390f35b34801561017957600080fd5b5061021a600480360381019080803590602001908201803590602001908080601f0160208091040260200160405190810160405280939291908181526020018383808284378201915050505050509192919290803590602001908201803590602001908080601f01602080910402602001604051908101604052809392919081815260200183838082843782019150505050505091929192905050506107c9565b604051808573ffffffffffffffffffffffffffffffffffffffff1673ffffffffffffffffffffffffffffffffffffffff168152602001806020018060200180602001848103845287818151815260200191508051906020019080838360005b83811015610294578082015181840152602081019050610279565b50505050905090810190601f1680156102c15780820380516001836020036101000a031916815260200191505b50848103835286818151815260200191508051906020019080838360005b838110156102fa5780820151818401526020810190506102df565b50505050905090810190601f1680156103275780820380516001836020036101000a031916815260200191505b50848103825285818151815260200191508051906020019080838360005b83811015610360578082015181840152602081019050610345565b50505050905090810190601f16801561038d5780820380516001836020036101000a031916815260200191505b5097505050505050505060405180910390f35b3480156103ac57600080fd5b506103cf6004803603810190808035600019169060200190929190505050610952565b604051808573ffffffffffffffffffffffffffffffffffffffff1673ffffffffffffffffffffffffffffffffffffffff168152602001806020018060200180602001848103845287818151815260200191508051906020019080838360005b8381101561044957808201518184015260208101905061042e565b50505050905090810190601f1680156104765780820380516001836020036101000a031916815260200191505b50848103835286818151815260200191508051906020019080838360005b838110156104af578082015181840152602081019050610494565b50505050905090810190601f1680156104dc5780820380516001836020036101000a031916815260200191505b50848103825285818151815260200191508051906020019080838360005b838110156105155780820151818401526020810190506104fa565b50505050905090810190601f1680156105425780820380516001836020036101000a031916815260200191505b5097505050505050505060405180910390f35b600061055f610bf3565b60006080604051908101604052803373ffffffffffffffffffffffffffffffffffffffff168152602001878152602001868152602001858152509150600286866040516020018083805190602001908083835b6020831015156105d757805182526020820191506020810190506020830392506105b2565b6001836020036101000a03801982511681845116808217855250505050505090500182805190602001908083835b60208310151561062a5780518252602082019150602081019050602083039250610605565b6001836020036101000a038019825116818451168082178552505050505050905001925050506040516020818303038152906040526040518082805190602001908083835b602083101515610694578051825260208201915060208101905060208303925061066f565b6001836020036101000a0380198251168184511680821785525050505050509050019150506020604051808303816000865af11580156106d8573d6000803e3d6000fd5b5050506040513d60208110156106ed57600080fd5b810190808051906020019092919050505090508160016000836000191660001916815260200190815260200160002060008201518160000160006101000a81548173ffffffffffffffffffffffffffffffffffffffff021916908373ffffffffffffffffffffffffffffffffffffffff160217905550602082015181600101908051906020019061077f929190610c32565b50604082015181600201908051906020019061079c929190610c32565b5060608201518160030190805190602001906107b9929190610c32565b5090505080925050509392505050565b600060608060606000600287876040516020018083805190602001908083835b60208310151561080e57805182526020820191506020810190506020830392506107e9565b6001836020036101000a03801982511681845116808217855250505050505090500182805190602001908083835b602083101515610861578051825260208201915060208101905060208303925061083c565b6001836020036101000a038019825116818451168082178552505050505050905001925050506040516020818303038152906040526040518082805190602001908083835b6020831015156108cb57805182526020820191506020810190506020830392506108a6565b6001836020036101000a0380198251168184511680821785525050505050509050019150506020604051808303816000865af115801561090f573d6000803e3d6000fd5b5050506040513d602081101561092457600080fd5b8101908080519060200190929190505050905061094081610952565b94509450945094505092959194509250565b60006060806060610961610bf3565b600160008760001916600019168152602001908152602001600020608060405190810160405290816000820160009054906101000a900473ffffffffffffffffffffffffffffffffffffffff1673ffffffffffffffffffffffffffffffffffffffff1673ffffffffffffffffffffffffffffffffffffffff168152602001600182018054600181600116156101000203166002900480601f016020809104026020016040519081016040528092919081815260200182805460018160011615610100020316600290048015610a775780601f10610a4c57610100808354040283529160200191610a77565b820191906000526020600020905b815481529060010190602001808311610a5a57829003601f168201915b50505050508152602001600282018054600181600116156101000203166002900480601f016020809104026020016040519081016040528092919081815260200182805460018160011615610100020316600290048015610b195780601f10610aee57610100808354040283529160200191610b19565b820191906000526020600020905b815481529060010190602001808311610afc57829003601f168201915b50505050508152602001600382018054600181600116156101000203166002900480601f016020809104026020016040519081016040528092919081815260200182805460018160011615610100020316600290048015610bbb5780601f10610b9057610100808354040283529160200191610bbb565b820191906000526020600020905b815481529060010190602001808311610b9e57829003601f168201915b505050505081525050905080600001518160200151826040015183606001518292508191508090509450945094509450509193509193565b608060405190810160405280600073ffffffffffffffffffffffffffffffffffffffff1681526020016060815260200160608152602001606081525090565b828054600181600116156101000203166002900490600052602060002090601f016020900481019282601f10610c7357805160ff1916838001178555610ca1565b82800160010185558215610ca1579182015b82811115610ca0578251825591602001919060010190610c85565b5b509050610cae9190610cb2565b5090565b610cd491905b80821115610cd0576000816000905550600101610cb8565b5090565b905600a165627a7a72305820f36177d0bd342f9303a9b957665b6d67b19707bd571985b38325c6b86b37c7ab0029",
  "source": "pragma solidity ^0.4.22;\n//pragma experimental ABIEncoderV2;\n\ncontract Message {\n\n    address owner;\n\n    struct Article {\n        address authorAddress;\n        string authorNickName;\n        string title;\n        string body;\n    }\n\n    mapping(bytes32 => Article) ID2Article;\n\n    modifier isOwner(){\n        if (msg.sender == owner) _;\n    }\n\n    constructor() public{\n        owner = msg.sender;\n    }\n\n    function publish(string authorNickName, string title, string body) public returns (bytes32){\n        Article memory temp = Article(msg.sender, authorNickName, title, body);\n        //bytes32 tmpID = sha256(abi.encodePacked(msg.sender, authorNickName, title, body));\n        // only encode two argument, the nick name and the title for better usage of searching through the web url\n        bytes32 tmpID = sha256(abi.encodePacked(authorNickName, title));\n        ID2Article[tmpID] = temp;\n        return (tmpID);\n    }\n\n    function getArticleByID(bytes32 articleID) public view returns (address, string, string, string){\n        Article memory tmp = ID2Article[articleID];\n        return (tmp.authorAddress, tmp.authorNickName, tmp.title, tmp.body);\n    }\n\n    function getArticleByURL(string nickName, string title) public view returns (address, string, string, string){\n        bytes32 tmpID = sha256(abi.encodePacked(nickName, title));\n        return getArticleByID(tmpID);\n    }\n}\n",
  "sourcePath": "/Users/howechen/GitHub/ethergraph/contracts/Message.sol",
  "compiler": {
    "name": "solc",
    "version": "0.4.24+commit.e67f0147.Emscripten.clang"
  },
  "schemaVersion": "2.0.0",
  "updatedAt": "2018-05-24T07:27:57.187Z"
}