{
  "contractName": "Message",
  "abi": [
    {
      "constant": true,
      "inputs": [
        {
          "name": "",
          "type": "bytes32"
        }
      ],
      "name": "ID2Article",
      "outputs": [
        {
          "name": "authorAddress",
          "type": "address"
        },
        {
          "name": "authorNickName",
          "type": "string"
        },
        {
          "name": "title",
          "type": "string"
        },
        {
          "name": "body",
          "type": "string"
        },
        {
          "name": "viewCount",
          "type": "uint256"
        }
      ],
      "payable": false,
      "stateMutability": "view",
      "type": "function"
    },
    {
      "inputs": [],
      "payable": false,
      "stateMutability": "nonpayable",
      "type": "constructor"
    },
    {
      "constant": false,
      "inputs": [
        {
          "name": "authorNickName",
          "type": "string"
        },
        {
          "name": "title",
          "type": "string"
        },
        {
          "name": "body",
          "type": "string"
        }
      ],
      "name": "publish",
      "outputs": [
        {
          "name": "",
          "type": "bytes32"
        }
      ],
      "payable": false,
      "stateMutability": "nonpayable",
      "type": "function"
    },
    {
      "constant": true,
      "inputs": [
        {
          "name": "articleID",
          "type": "bytes32"
        }
      ],
      "name": "getArticleByID",
      "outputs": [
        {
          "name": "",
          "type": "address"
        },
        {
          "name": "",
          "type": "string"
        },
        {
          "name": "",
          "type": "string"
        },
        {
          "name": "",
          "type": "string"
        },
        {
          "name": "",
          "type": "uint256"
        }
      ],
      "payable": false,
      "stateMutability": "view",
      "type": "function"
    },
    {
      "constant": true,
      "inputs": [
        {
          "name": "nickName",
          "type": "string"
        },
        {
          "name": "title",
          "type": "string"
        }
      ],
      "name": "getArticleByURL",
      "outputs": [
        {
          "name": "",
          "type": "address"
        },
        {
          "name": "",
          "type": "string"
        },
        {
          "name": "",
          "type": "string"
        },
        {
          "name": "",
          "type": "string"
        },
        {
          "name": "",
          "type": "uint256"
        }
      ],
      "payable": false,
      "stateMutability": "view",
      "type": "function"
    }
  ],
  "bytecode": "0x608060405234801561001057600080fd5b50336000806101000a81548173ffffffffffffffffffffffffffffffffffffffff021916908373ffffffffffffffffffffffffffffffffffffffff16021790555061119e806100606000396000f300608060405260043610610062576000357c0100000000000000000000000000000000000000000000000000000000900463ffffffff1680636d25e37714610067578063ab74879314610178578063baadded4146103b2578063d2371d3a1461056e575b600080fd5b34801561007357600080fd5b5061015a600480360381019080803590602001908201803590602001908080601f0160208091040260200160405190810160405280939291908181526020018383808284378201915050505050509192919290803590602001908201803590602001908080601f0160208091040260200160405190810160405280939291908181526020018383808284378201915050505050509192919290803590602001908201803590602001908080601f016020809104026020016040519081016040528093929190818152602001838380828437820191505050505050919291929050505061072a565b60405180826000191660001916815260200191505060405180910390f35b34801561018457600080fd5b50610225600480360381019080803590602001908201803590602001908080601f0160208091040260200160405190810160405280939291908181526020018383808284378201915050505050509192919290803590602001908201803590602001908080601f01602080910402602001604051908101604052809392919081815260200183838082843782019150505050505091929192905050506109af565b604051808673ffffffffffffffffffffffffffffffffffffffff1673ffffffffffffffffffffffffffffffffffffffff168152602001806020018060200180602001858152602001848103845288818151815260200191508051906020019080838360005b838110156102a557808201518184015260208101905061028a565b50505050905090810190601f1680156102d25780820380516001836020036101000a031916815260200191505b50848103835287818151815260200191508051906020019080838360005b8381101561030b5780820151818401526020810190506102f0565b50505050905090810190601f1680156103385780820380516001836020036101000a031916815260200191505b50848103825286818151815260200191508051906020019080838360005b83811015610371578082015181840152602081019050610356565b50505050905090810190601f16801561039e5780820380516001836020036101000a031916815260200191505b509850505050505050505060405180910390f35b3480156103be57600080fd5b506103e16004803603810190808035600019169060200190929190505050610b3c565b604051808673ffffffffffffffffffffffffffffffffffffffff1673ffffffffffffffffffffffffffffffffffffffff168152602001806020018060200180602001858152602001848103845288818151815260200191508051906020019080838360005b83811015610461578082015181840152602081019050610446565b50505050905090810190601f16801561048e5780820380516001836020036101000a031916815260200191505b50848103835287818151815260200191508051906020019080838360005b838110156104c75780820151818401526020810190506104ac565b50505050905090810190601f1680156104f45780820380516001836020036101000a031916815260200191505b50848103825286818151815260200191508051906020019080838360005b8381101561052d578082015181840152602081019050610512565b50505050905090810190601f16801561055a5780820380516001836020036101000a031916815260200191505b509850505050505050505060405180910390f35b34801561057a57600080fd5b5061059d6004803603810190808035600019169060200190929190505050610e4d565b604051808673ffffffffffffffffffffffffffffffffffffffff1673ffffffffffffffffffffffffffffffffffffffff168152602001806020018060200180602001858152602001848103845288818151815260200191508051906020019080838360005b8381101561061d578082015181840152602081019050610602565b50505050905090810190601f16801561064a5780820380516001836020036101000a031916815260200191505b50848103835287818151815260200191508051906020019080838360005b83811015610683578082015181840152602081019050610668565b50505050905090810190601f1680156106b05780820380516001836020036101000a031916815260200191505b50848103825286818151815260200191508051906020019080838360005b838110156106e95780820151818401526020810190506106ce565b50505050905090810190601f1680156107165780820380516001836020036101000a031916815260200191505b509850505050505050505060405180910390f35b6000610734611087565b600060a0604051908101604052803373ffffffffffffffffffffffffffffffffffffffff16815260200187815260200186815260200185815260200160018152509150600286866040516020018083805190602001908083835b6020831015156107b3578051825260208201915060208101905060208303925061078e565b6001836020036101000a03801982511681845116808217855250505050505090500182805190602001908083835b60208310151561080657805182526020820191506020810190506020830392506107e1565b6001836020036101000a038019825116818451168082178552505050505050905001925050506040516020818303038152906040526040518082805190602001908083835b602083101515610870578051825260208201915060208101905060208303925061084b565b6001836020036101000a0380198251168184511680821785525050505050509050019150506020604051808303816000865af11580156108b4573d6000803e3d6000fd5b5050506040513d60208110156108c957600080fd5b810190808051906020019092919050505090508160016000836000191660001916815260200190815260200160002060008201518160000160006101000a81548173ffffffffffffffffffffffffffffffffffffffff021916908373ffffffffffffffffffffffffffffffffffffffff160217905550602082015181600101908051906020019061095b9291906110cd565b5060408201518160020190805190602001906109789291906110cd565b5060608201518160030190805190602001906109959291906110cd565b506080820151816004015590505080925050509392505050565b60006060806060600080600288886040516020018083805190602001908083835b6020831015156109f557805182526020820191506020810190506020830392506109d0565b6001836020036101000a03801982511681845116808217855250505050505090500182805190602001908083835b602083101515610a485780518252602082019150602081019050602083039250610a23565b6001836020036101000a038019825116818451168082178552505050505050905001925050506040516020818303038152906040526040518082805190602001908083835b602083101515610ab25780518252602082019150602081019050602083039250610a8d565b6001836020036101000a0380198251168184511680821785525050505050509050019150506020604051808303816000865af1158015610af6573d6000803e3d6000fd5b5050506040513d6020811015610b0b57600080fd5b81019080805190602001909291905050509050610b2781610b3c565b95509550955095509550509295509295909350565b600060608060606000610b4d611087565b60016000886000191660001916815260200190815260200160002060a060405190810160405290816000820160009054906101000a900473ffffffffffffffffffffffffffffffffffffffff1673ffffffffffffffffffffffffffffffffffffffff1673ffffffffffffffffffffffffffffffffffffffff168152602001600182018054600181600116156101000203166002900480601f016020809104026020016040519081016040528092919081815260200182805460018160011615610100020316600290048015610c635780601f10610c3857610100808354040283529160200191610c63565b820191906000526020600020905b815481529060010190602001808311610c4657829003601f168201915b50505050508152602001600282018054600181600116156101000203166002900480601f016020809104026020016040519081016040528092919081815260200182805460018160011615610100020316600290048015610d055780601f10610cda57610100808354040283529160200191610d05565b820191906000526020600020905b815481529060010190602001808311610ce857829003601f168201915b50505050508152602001600382018054600181600116156101000203166002900480601f016020809104026020016040519081016040528092919081815260200182805460018160011615610100020316600290048015610da75780601f10610d7c57610100808354040283529160200191610da7565b820191906000526020600020905b815481529060010190602001808311610d8a57829003601f168201915b505050505081526020016004820154815250509050806000015173ffffffffffffffffffffffffffffffffffffffff163373ffffffffffffffffffffffffffffffffffffffff16141515610e1757610e0d6001826080015161106b90919063ffffffff16565b8160800181815250505b80600001518160200151826040015183606001518460800151839350829250819150955095509550955095505091939590929450565b60016020528060005260406000206000915090508060000160009054906101000a900473ffffffffffffffffffffffffffffffffffffffff1690806001018054600181600116156101000203166002900480601f016020809104026020016040519081016040528092919081815260200182805460018160011615610100020316600290048015610f1f5780601f10610ef457610100808354040283529160200191610f1f565b820191906000526020600020905b815481529060010190602001808311610f0257829003601f168201915b505050505090806002018054600181600116156101000203166002900480601f016020809104026020016040519081016040528092919081815260200182805460018160011615610100020316600290048015610fbd5780601f10610f9257610100808354040283529160200191610fbd565b820191906000526020600020905b815481529060010190602001808311610fa057829003601f168201915b505050505090806003018054600181600116156101000203166002900480601f01602080910402602001604051908101604052809291908181526020018280546001816001161561010002031660029004801561105b5780601f106110305761010080835404028352916020019161105b565b820191906000526020600020905b81548152906001019060200180831161103e57829003601f168201915b5050505050908060040154905085565b6000818301905082811015151561107e57fe5b80905092915050565b60a060405190810160405280600073ffffffffffffffffffffffffffffffffffffffff168152602001606081526020016060815260200160608152602001600081525090565b828054600181600116156101000203166002900490600052602060002090601f016020900481019282601f1061110e57805160ff191683800117855561113c565b8280016001018555821561113c579182015b8281111561113b578251825591602001919060010190611120565b5b509050611149919061114d565b5090565b61116f91905b8082111561116b576000816000905550600101611153565b5090565b905600a165627a7a7230582004a5e709f06dd7bdc5bc42c035da8536e157545d7fc483643a5b9f04e90c2a310029",
  "source": "pragma solidity ^0.4.22;\n\nimport \"openzeppelin-solidity/contracts/math/SafeMath.sol\";\n\n\ncontract Message {\n    using SafeMath for uint;\n\n    address owner;\n\n    struct Article {\n        address authorAddress;\n        string authorNickName;\n        string title;\n        string body;\n        uint256 viewCount;\n    }\n\n    mapping(bytes32 => Article) public ID2Article;\n\n    modifier isOwner(){\n        if (msg.sender == owner) _;\n    }\n\n    constructor() public{\n        owner = msg.sender;\n    }\n\n    function publish(string authorNickName, string title, string body) public returns (bytes32){\n\n        Article memory temp = Article(msg.sender, authorNickName, title, body, 1);\n        //bytes32 tmpID = sha256(abi.encodePacked(msg.sender, authorNickName, title, body));\n        // only encode two argument, the nick name and the title for better usage of searching through the web url\n        bytes32 tmpID = sha256(abi.encodePacked(authorNickName, title));\n        ID2Article[tmpID] = temp;\n        return (tmpID);\n    }\n\n    function getArticleByID(bytes32 articleID) public view returns (address, string, string, string, uint256){\n\n        Article memory tmp = ID2Article[articleID];\n        // if the one who get this article is not the msg.sender then the viewCount would add one;\n        if (msg.sender != tmp.authorAddress) {\n            tmp.viewCount = tmp.viewCount.add(1);\n        }\n        return (tmp.authorAddress, tmp.authorNickName, tmp.title, tmp.body, tmp.viewCount);\n    }\n\n    function getArticleByURL(string nickName, string title) public view returns (address, string, string, string, uint256){\n        bytes32 tmpID = sha256(abi.encodePacked(nickName, title));\n        return getArticleByID(tmpID);\n    }\n}\n",
  "sourcePath": "/Users/howechen/GitHub/ethergraph/contracts/Message.sol",
  "compiler": {
    "name": "solc",
    "version": "0.4.24+commit.e67f0147.Emscripten.clang"
  },
  "schemaVersion": "2.0.0",
  "updatedAt": "2018-05-25T09:29:35.863Z"
}