{
  "contractName": "Message",
  "abi": [
    {
      "inputs": [],
      "payable": false,
      "stateMutability": "nonpayable",
      "type": "constructor"
    },
    {
      "constant": false,
      "inputs": [
        {
          "name": "authorNickName",
          "type": "string"
        },
        {
          "name": "title",
          "type": "string"
        },
        {
          "name": "body",
          "type": "string"
        }
      ],
      "name": "publish",
      "outputs": [
        {
          "name": "",
          "type": "bytes32"
        }
      ],
      "payable": false,
      "stateMutability": "nonpayable",
      "type": "function"
    },
    {
      "constant": true,
      "inputs": [
        {
          "name": "articleID",
          "type": "bytes32"
        }
      ],
      "name": "getArticle",
      "outputs": [
        {
          "name": "",
          "type": "address"
        },
        {
          "name": "",
          "type": "string"
        },
        {
          "name": "",
          "type": "string"
        },
        {
          "name": "",
          "type": "string"
        }
      ],
      "payable": false,
      "stateMutability": "view",
      "type": "function"
    }
  ],
  "bytecode": "0x608060405234801561001057600080fd5b50336000806101000a81548173ffffffffffffffffffffffffffffffffffffffff021916908373ffffffffffffffffffffffffffffffffffffffff1602179055506109d4806100606000396000f30060806040526004361061004c576000357c0100000000000000000000000000000000000000000000000000000000900463ffffffff1680631ba395dd146100515780636d25e37714610206575b600080fd5b34801561005d57600080fd5b506100806004803603810190808035600019169060200190929190505050610317565b604051808573ffffffffffffffffffffffffffffffffffffffff1673ffffffffffffffffffffffffffffffffffffffff168152602001806020018060200180602001848103845287818151815260200191508051906020019080838360005b838110156100fa5780820151818401526020810190506100df565b50505050905090810190601f1680156101275780820380516001836020036101000a031916815260200191505b50848103835286818151815260200191508051906020019080838360005b83811015610160578082015181840152602081019050610145565b50505050905090810190601f16801561018d5780820380516001836020036101000a031916815260200191505b50848103825285818151815260200191508051906020019080838360005b838110156101c65780820151818401526020810190506101ab565b50505050905090810190601f1680156101f35780820380516001836020036101000a031916815260200191505b5097505050505050505060405180910390f35b34801561021257600080fd5b506102f9600480360381019080803590602001908201803590602001908080601f0160208091040260200160405190810160405280939291908181526020018383808284378201915050505050509192919290803590602001908201803590602001908080601f0160208091040260200160405190810160405280939291908181526020018383808284378201915050505050509192919290803590602001908201803590602001908080601f01602080910402602001604051908101604052809392919081815260200183838082843782019150505050505091929192905050506105b8565b60405180826000191660001916815260200191505060405180910390f35b600060608060606103266108c4565b600160008760001916600019168152602001908152602001600020608060405190810160405290816000820160009054906101000a900473ffffffffffffffffffffffffffffffffffffffff1673ffffffffffffffffffffffffffffffffffffffff1673ffffffffffffffffffffffffffffffffffffffff168152602001600182018054600181600116156101000203166002900480601f01602080910402602001604051908101604052809291908181526020018280546001816001161561010002031660029004801561043c5780601f106104115761010080835404028352916020019161043c565b820191906000526020600020905b81548152906001019060200180831161041f57829003601f168201915b50505050508152602001600282018054600181600116156101000203166002900480601f0160208091040260200160405190810160405280929190818152602001828054600181600116156101000203166002900480156104de5780601f106104b3576101008083540402835291602001916104de565b820191906000526020600020905b8154815290600101906020018083116104c157829003601f168201915b50505050508152602001600382018054600181600116156101000203166002900480601f0160208091040260200160405190810160405280929190818152602001828054600181600116156101000203166002900480156105805780601f1061055557610100808354040283529160200191610580565b820191906000526020600020905b81548152906001019060200180831161056357829003601f168201915b505050505081525050905080600001518160200151826040015183606001518292508191508090509450945094509450509193509193565b60006105c26108c4565b60006080604051908101604052803373ffffffffffffffffffffffffffffffffffffffff168152602001878152602001868152602001858152509150600233878787604051602001808573ffffffffffffffffffffffffffffffffffffffff1673ffffffffffffffffffffffffffffffffffffffff166c0100000000000000000000000002815260140184805190602001908083835b60208310151561067d5780518252602082019150602081019050602083039250610658565b6001836020036101000a03801982511681845116808217855250505050505090500183805190602001908083835b6020831015156106d057805182526020820191506020810190506020830392506106ab565b6001836020036101000a03801982511681845116808217855250505050505090500182805190602001908083835b60208310151561072357805182526020820191506020810190506020830392506106fe565b6001836020036101000a0380198251168184511680821785525050505050509050019450505050506040516020818303038152906040526040518082805190602001908083835b60208310151561078f578051825260208201915060208101905060208303925061076a565b6001836020036101000a0380198251168184511680821785525050505050509050019150506020604051808303816000865af11580156107d3573d6000803e3d6000fd5b5050506040513d60208110156107e857600080fd5b810190808051906020019092919050505090508160016000836000191660001916815260200190815260200160002060008201518160000160006101000a81548173ffffffffffffffffffffffffffffffffffffffff021916908373ffffffffffffffffffffffffffffffffffffffff160217905550602082015181600101908051906020019061087a929190610903565b506040820151816002019080519060200190610897929190610903565b5060608201518160030190805190602001906108b4929190610903565b5090505080925050509392505050565b608060405190810160405280600073ffffffffffffffffffffffffffffffffffffffff1681526020016060815260200160608152602001606081525090565b828054600181600116156101000203166002900490600052602060002090601f016020900481019282601f1061094457805160ff1916838001178555610972565b82800160010185558215610972579182015b82811115610971578251825591602001919060010190610956565b5b50905061097f9190610983565b5090565b6109a591905b808211156109a1576000816000905550600101610989565b5090565b905600a165627a7a72305820946ba2d595641b58e506d0fcccd1a161fdddd4187ce7a8408c935d72544fbfcb0029",
  "source": "pragma solidity ^0.4.22;\n//pragma experimental ABIEncoderV2;\n\ncontract Message {\n\n    address owner;\n\n    struct Article {\n        address authorAddress;\n        string authorNickName;\n        string title;\n        string body;\n    }\n\n    mapping(bytes32 => Article) ID2Article;\n\n    modifier isOwner(){\n        if (msg.sender == owner) _;\n    }\n\n    constructor() public{\n        owner = msg.sender;\n    }\n\n    function publish(string authorNickName, string title, string body) public returns (bytes32){\n        Article memory temp = Article(msg.sender, authorNickName, title, body);\n        bytes32 tmpID = sha256(abi.encodePacked(msg.sender, authorNickName, title, body));\n        ID2Article[tmpID] = temp;\n        return (tmpID);\n    }\n\n    function getArticle(bytes32 articleID) public view returns (address, string, string, string){\n        Article memory tmp = ID2Article[articleID];\n        return (tmp.authorAddress, tmp.authorNickName, tmp.title, tmp.body);\n    }\n}\n",
  "sourcePath": "/Users/howechen/GitHub/ethergraph/contracts/Message.sol",
  "compiler": {
    "name": "solc",
    "version": "0.4.24+commit.e67f0147.Emscripten.clang"
  },
  "schemaVersion": "2.0.0",
  "updatedAt": "2018-05-23T13:43:58.844Z"
}