{
  "contractName": "Message",
  "abi": [
    {
      "inputs": [],
      "payable": false,
      "stateMutability": "nonpayable",
      "type": "constructor"
    },
    {
      "constant": false,
      "inputs": [
        {
          "name": "authorNickName",
          "type": "string"
        },
        {
          "name": "title",
          "type": "string"
        },
        {
          "name": "body",
          "type": "string"
        }
      ],
      "name": "publish",
      "outputs": [
        {
          "name": "",
          "type": "bytes32"
        }
      ],
      "payable": false,
      "stateMutability": "nonpayable",
      "type": "function"
    },
    {
      "constant": true,
      "inputs": [
        {
          "name": "articleID",
          "type": "bytes32"
        }
      ],
      "name": "getArticleByID",
      "outputs": [
        {
          "name": "",
          "type": "address"
        },
        {
          "name": "",
          "type": "string"
        },
        {
          "name": "",
          "type": "string"
        },
        {
          "name": "",
          "type": "string"
        },
        {
          "name": "",
          "type": "uint256"
        }
      ],
      "payable": false,
      "stateMutability": "view",
      "type": "function"
    },
    {
      "constant": true,
      "inputs": [
        {
          "name": "nickName",
          "type": "string"
        },
        {
          "name": "title",
          "type": "string"
        }
      ],
      "name": "getArticleByURL",
      "outputs": [
        {
          "name": "",
          "type": "address"
        },
        {
          "name": "",
          "type": "string"
        },
        {
          "name": "",
          "type": "string"
        },
        {
          "name": "",
          "type": "string"
        },
        {
          "name": "",
          "type": "uint256"
        }
      ],
      "payable": false,
      "stateMutability": "view",
      "type": "function"
    }
  ],
  "bytecode": "0x608060405234801561001057600080fd5b50336000806101000a81548173ffffffffffffffffffffffffffffffffffffffff021916908373ffffffffffffffffffffffffffffffffffffffff160217905550610db9806100606000396000f300608060405260043610610057576000357c0100000000000000000000000000000000000000000000000000000000900463ffffffff1680636d25e3771461005c578063ab7487931461016d578063baadded4146103a7575b600080fd5b34801561006857600080fd5b5061014f600480360381019080803590602001908201803590602001908080601f0160208091040260200160405190810160405280939291908181526020018383808284378201915050505050509192919290803590602001908201803590602001908080601f0160208091040260200160405190810160405280939291908181526020018383808284378201915050505050509192919290803590602001908201803590602001908080601f0160208091040260200160405190810160405280939291908181526020018383808284378201915050505050509192919290505050610563565b60405180826000191660001916815260200191505060405180910390f35b34801561017957600080fd5b5061021a600480360381019080803590602001908201803590602001908080601f0160208091040260200160405190810160405280939291908181526020018383808284378201915050505050509192919290803590602001908201803590602001908080601f01602080910402602001604051908101604052809392919081815260200183838082843782019150505050505091929192905050506107e8565b604051808673ffffffffffffffffffffffffffffffffffffffff1673ffffffffffffffffffffffffffffffffffffffff168152602001806020018060200180602001858152602001848103845288818151815260200191508051906020019080838360005b8381101561029a57808201518184015260208101905061027f565b50505050905090810190601f1680156102c75780820380516001836020036101000a031916815260200191505b50848103835287818151815260200191508051906020019080838360005b838110156103005780820151818401526020810190506102e5565b50505050905090810190601f16801561032d5780820380516001836020036101000a031916815260200191505b50848103825286818151815260200191508051906020019080838360005b8381101561036657808201518184015260208101905061034b565b50505050905090810190601f1680156103935780820380516001836020036101000a031916815260200191505b509850505050505050505060405180910390f35b3480156103b357600080fd5b506103d66004803603810190808035600019169060200190929190505050610975565b604051808673ffffffffffffffffffffffffffffffffffffffff1673ffffffffffffffffffffffffffffffffffffffff168152602001806020018060200180602001858152602001848103845288818151815260200191508051906020019080838360005b8381101561045657808201518184015260208101905061043b565b50505050905090810190601f1680156104835780820380516001836020036101000a031916815260200191505b50848103835287818151815260200191508051906020019080838360005b838110156104bc5780820151818401526020810190506104a1565b50505050905090810190601f1680156104e95780820380516001836020036101000a031916815260200191505b50848103825286818151815260200191508051906020019080838360005b83811015610522578082015181840152602081019050610507565b50505050905090810190601f16801561054f5780820380516001836020036101000a031916815260200191505b509850505050505050505060405180910390f35b600061056d610ca2565b600060a0604051908101604052803373ffffffffffffffffffffffffffffffffffffffff16815260200187815260200186815260200185815260200160018152509150600286866040516020018083805190602001908083835b6020831015156105ec57805182526020820191506020810190506020830392506105c7565b6001836020036101000a03801982511681845116808217855250505050505090500182805190602001908083835b60208310151561063f578051825260208201915060208101905060208303925061061a565b6001836020036101000a038019825116818451168082178552505050505050905001925050506040516020818303038152906040526040518082805190602001908083835b6020831015156106a95780518252602082019150602081019050602083039250610684565b6001836020036101000a0380198251168184511680821785525050505050509050019150506020604051808303816000865af11580156106ed573d6000803e3d6000fd5b5050506040513d602081101561070257600080fd5b810190808051906020019092919050505090508160016000836000191660001916815260200190815260200160002060008201518160000160006101000a81548173ffffffffffffffffffffffffffffffffffffffff021916908373ffffffffffffffffffffffffffffffffffffffff1602179055506020820151816001019080519060200190610794929190610ce8565b5060408201518160020190805190602001906107b1929190610ce8565b5060608201518160030190805190602001906107ce929190610ce8565b506080820151816004015590505080925050509392505050565b60006060806060600080600288886040516020018083805190602001908083835b60208310151561082e5780518252602082019150602081019050602083039250610809565b6001836020036101000a03801982511681845116808217855250505050505090500182805190602001908083835b602083101515610881578051825260208201915060208101905060208303925061085c565b6001836020036101000a038019825116818451168082178552505050505050905001925050506040516020818303038152906040526040518082805190602001908083835b6020831015156108eb57805182526020820191506020810190506020830392506108c6565b6001836020036101000a0380198251168184511680821785525050505050509050019150506020604051808303816000865af115801561092f573d6000803e3d6000fd5b5050506040513d602081101561094457600080fd5b8101908080519060200190929190505050905061096081610975565b95509550955095509550509295509295909350565b600060608060606000610986610ca2565b60016000886000191660001916815260200190815260200160002060a060405190810160405290816000820160009054906101000a900473ffffffffffffffffffffffffffffffffffffffff1673ffffffffffffffffffffffffffffffffffffffff1673ffffffffffffffffffffffffffffffffffffffff168152602001600182018054600181600116156101000203166002900480601f016020809104026020016040519081016040528092919081815260200182805460018160011615610100020316600290048015610a9c5780601f10610a7157610100808354040283529160200191610a9c565b820191906000526020600020905b815481529060010190602001808311610a7f57829003601f168201915b50505050508152602001600282018054600181600116156101000203166002900480601f016020809104026020016040519081016040528092919081815260200182805460018160011615610100020316600290048015610b3e5780601f10610b1357610100808354040283529160200191610b3e565b820191906000526020600020905b815481529060010190602001808311610b2157829003601f168201915b50505050508152602001600382018054600181600116156101000203166002900480601f016020809104026020016040519081016040528092919081815260200182805460018160011615610100020316600290048015610be05780601f10610bb557610100808354040283529160200191610be0565b820191906000526020600020905b815481529060010190602001808311610bc357829003601f168201915b505050505081526020016004820154815250509050806000015173ffffffffffffffffffffffffffffffffffffffff163373ffffffffffffffffffffffffffffffffffffffff16141515610c5057610c4660018260800151610c8690919063ffffffff16565b8160800181815250505b80600001518160200151826040015183606001518460800151839350829250819150955095509550955095505091939590929450565b60008183019050828110151515610c9957fe5b80905092915050565b60a060405190810160405280600073ffffffffffffffffffffffffffffffffffffffff168152602001606081526020016060815260200160608152602001600081525090565b828054600181600116156101000203166002900490600052602060002090601f016020900481019282601f10610d2957805160ff1916838001178555610d57565b82800160010185558215610d57579182015b82811115610d56578251825591602001919060010190610d3b565b5b509050610d649190610d68565b5090565b610d8a91905b80821115610d86576000816000905550600101610d6e565b5090565b905600a165627a7a723058206157b991a2625325212ea163f8e311aba1dabf4334724d52f4012ae069dbb9930029",
  "source": "pragma solidity ^0.4.22;\n\nimport 'openzeppelin-solidity/contracts/math/SafeMath.sol';\n\n\ncontract Message {\n    using SafeMath for uint;\n\n    address owner;\n\n    struct Article {\n        address authorAddress;\n        string authorNickName;\n        string title;\n        string body;\n        uint256 viewCount;\n    }\n\n    mapping(bytes32 => Article) ID2Article;\n\n    modifier isOwner(){\n        if (msg.sender == owner) _;\n    }\n\n    constructor() public{\n        owner = msg.sender;\n    }\n\n    function publish(string authorNickName, string title, string body) public returns (bytes32){\n        Article memory temp = Article(msg.sender, authorNickName, title, body, 1);\n        //bytes32 tmpID = sha256(abi.encodePacked(msg.sender, authorNickName, title, body));\n        // only encode two argument, the nick name and the title for better usage of searching through the web url\n        bytes32 tmpID = sha256(abi.encodePacked(authorNickName, title));\n        ID2Article[tmpID] = temp;\n        return (tmpID);\n    }\n\n    function getArticleByID(bytes32 articleID) public view returns (address, string, string, string, uint256){\n\n        Article memory tmp = ID2Article[articleID];\n        // if the one who get this article is not the msg.sender then the viewCount would add one;\n        if (msg.sender != tmp.authorAddress) {\n            tmp.viewCount = tmp.viewCount.add(1);\n        }\n        return (tmp.authorAddress, tmp.authorNickName, tmp.title, tmp.body, tmp.viewCount);\n    }\n\n    function getArticleByURL(string nickName, string title) public view returns (address, string, string, string, uint256){\n        bytes32 tmpID = sha256(abi.encodePacked(nickName, title));\n        return getArticleByID(tmpID);\n    }\n}\n",
  "sourcePath": "/Users/howechen/GitHub/ethergraph/contracts/Message.sol",
  "compiler": {
    "name": "solc",
    "version": "0.4.24+commit.e67f0147.Emscripten.clang"
  },
  "schemaVersion": "2.0.0",
  "updatedAt": "2018-05-24T15:59:41.445Z"
}