{
  "contractName": "Message",
  "abi": [
    {
      "inputs": [],
      "payable": false,
      "stateMutability": "nonpayable",
      "type": "constructor"
    },
    {
      "constant": false,
      "inputs": [
        {
          "name": "nick_name",
          "type": "string"
        }
      ],
      "name": "setNickName",
      "outputs": [],
      "payable": false,
      "stateMutability": "nonpayable",
      "type": "function"
    },
    {
      "constant": true,
      "inputs": [
        {
          "name": "inputAddress",
          "type": "address"
        }
      ],
      "name": "getNickName",
      "outputs": [
        {
          "name": "",
          "type": "string"
        }
      ],
      "payable": false,
      "stateMutability": "view",
      "type": "function"
    },
    {
      "constant": false,
      "inputs": [
        {
          "name": "title",
          "type": "string"
        },
        {
          "name": "body",
          "type": "string"
        }
      ],
      "name": "publish",
      "outputs": [
        {
          "name": "",
          "type": "string"
        }
      ],
      "payable": false,
      "stateMutability": "nonpayable",
      "type": "function"
    }
  ],
  "bytecode": "0x608060405234801561001057600080fd5b50336000806101000a81548173ffffffffffffffffffffffffffffffffffffffff021916908373ffffffffffffffffffffffffffffffffffffffff1602179055506107f2806100606000396000f300608060405260043610610057576000357c0100000000000000000000000000000000000000000000000000000000900463ffffffff168063c163bba71461005c578063c73ea36714610184578063ead0327d146101ed575b600080fd5b34801561006857600080fd5b50610109600480360381019080803590602001908201803590602001908080601f0160208091040260200160405190810160405280939291908181526020018383808284378201915050505050509192919290803590602001908201803590602001908080601f01602080910402602001604051908101604052809392919081815260200183838082843782019150505050505091929192905050506102a9565b6040518080602001828103825283818151815260200191508051906020019080838360005b8381101561014957808201518184015260208101905061012e565b50505050905090810190601f1680156101765780820380516001836020036101000a031916815260200191505b509250505060405180910390f35b34801561019057600080fd5b506101eb600480360381019080803590602001908201803590602001908080601f0160208091040260200160405190810160405280939291908181526020018383808284378201915050505050509192919290505050610544565b005b3480156101f957600080fd5b5061022e600480360381019080803573ffffffffffffffffffffffffffffffffffffffff16906020019092919050505061059b565b6040518080602001828103825283818151815260200191508051906020019080838360005b8381101561026e578082015181840152602081019050610253565b50505050905090810190601f16801561029b5780820380516001836020036101000a031916815260200191505b509250505060405180910390f35b60606102b361067c565b6002338585604051602001808473ffffffffffffffffffffffffffffffffffffffff1673ffffffffffffffffffffffffffffffffffffffff166c0100000000000000000000000002815260140183805190602001908083835b602083101515610331578051825260208201915060208101905060208303925061030c565b6001836020036101000a03801982511681845116808217855250505050505090500182805190602001908083835b602083101515610384578051825260208201915060208101905060208303925061035f565b6001836020036101000a03801982511681845116808217855250505050505090500193505050506040516020818303038152906040526040518082805190602001908083835b6020831015156103ef57805182526020820191506020810190506020830392506103ca565b6001836020036101000a0380198251168184511680821785525050505050509050019150506020604051808303816000865af1158015610433573d6000803e3d6000fd5b5050506040513d602081101561044857600080fd5b810190808051906020019092919050505081600001906000191690816000191681525050838160200181905250828160400181905250600160003373ffffffffffffffffffffffffffffffffffffffff1673ffffffffffffffffffffffffffffffffffffffff16815260200190815260200160002081908060018154018082558091505090600182039060005260206000209060030201600090919290919091506000820151816000019060001916905560208201518160010190805190602001906105159291906106a1565b5060408201518160020190805190602001906105329291906106a1565b50505050806020015191505092915050565b80600260003373ffffffffffffffffffffffffffffffffffffffff1673ffffffffffffffffffffffffffffffffffffffff1681526020019081526020016000209080519060200190610597929190610721565b5050565b6060600260008373ffffffffffffffffffffffffffffffffffffffff1673ffffffffffffffffffffffffffffffffffffffff1681526020019081526020016000208054600181600116156101000203166002900480601f0160208091040260200160405190810160405280929190818152602001828054600181600116156101000203166002900480156106705780601f1061064557610100808354040283529160200191610670565b820191906000526020600020905b81548152906001019060200180831161065357829003601f168201915b50505050509050919050565b6060604051908101604052806000801916815260200160608152602001606081525090565b828054600181600116156101000203166002900490600052602060002090601f016020900481019282601f106106e257805160ff1916838001178555610710565b82800160010185558215610710579182015b8281111561070f5782518255916020019190600101906106f4565b5b50905061071d91906107a1565b5090565b828054600181600116156101000203166002900490600052602060002090601f016020900481019282601f1061076257805160ff1916838001178555610790565b82800160010185558215610790579182015b8281111561078f578251825591602001919060010190610774565b5b50905061079d91906107a1565b5090565b6107c391905b808211156107bf5760008160009055506001016107a7565b5090565b905600a165627a7a723058200572a6589dce6707d856a90f37d4b449db08fc23941007ce5271afdacbc2b2130029",
  "source": "pragma solidity ^0.4.0;\n//pragma experimental ABIEncoderV2;\n\ncontract Message {\n    address owner;\n\n    modifier equalOwner() {\n        if (msg.sender == owner) _;\n    }\n\n    modifier equalAuthor(address queryAddress){\n        if (msg.sender == queryAddress) _;\n    }\n\n    struct Article {\n        bytes32 articleID;\n        string title;\n        string body;\n    }\n\n    mapping(address => Article[]) Author2Article;\n    //    mapping(string => address) NickName2Author;\n    mapping(address => string) Author2NickName;\n\n    constructor() public{\n        owner = msg.sender;\n    }\n\n    function setNickName(string nick_name) public {\n        Author2NickName[msg.sender] = nick_name;\n    }\n\n    function getNickName(address inputAddress) public view returns (string){\n        return Author2NickName[inputAddress];\n    }\n\n    function publish(string title, string body) public returns (string){\n        Article memory temp;\n        temp.articleID = sha256(abi.encodePacked(msg.sender, title, body));\n        temp.title = title;\n        temp.body = body;\n\n        Author2Article[msg.sender].push(temp);\n        return temp.title;\n    }\n\n    // this function is to get the profile of an author\n    //    function getProfileFromAddress(address inputAddress) public view returns (Article[]){\n    //        return Author2Article[inputAddress];\n    //    }\n\n    //    function getArticleFromID(bytes id) public view returns (string, string){\n    //        for (int i = 0; i < Author2Article.length; ++i) {\n    //            if (Author2NickName[i] == msg.sender) {\n    //                for (int j = 0; j < Author2Article[i].length; ++j) {\n    //                    if (Author2Article[i][j].articleID == id) {\n    //                        return (Author2Article[i][j].title, Author2Article[i][j].body);\n    //                    }\n    //                }\n    //            }\n    //        }\n    //    }\n}\n",
  "sourcePath": "/Users/howechen/GitHub/ethergraph/contracts/Message.sol",
  "compiler": {
    "name": "solc",
    "version": "0.4.24+commit.e67f0147.Emscripten.clang"
  },
  "schemaVersion": "2.0.0",
  "updatedAt": "2018-05-22T15:04:52.351Z"
}